:100000000C9463000C948B000C948B000C948B006C
:100010000C948B000C948B000C948B000C94D403E8
:100020000C948B000C948B000C948B000C94D204D9
:100030000C948B000C948B000C948B000C948B0014
:100040000C9488040C948B000C9456040C9430048B
:100050000C948B000C948B000C948B000C948B00F4
:100060000C948B000C948B000000000024002700EF
:100070002A0000000000250028002B0002000000DC
:100080000800020100000304070000000000000057
:1000900000000000002300260029000404040404DA
:1000A0000404040202020202020303030303030125
:1000B00002040810204080010204081020010204FC
:1000C00008102000D30511241FBECFEFD8E0DEBFFB
:1000D000CDBF11E0A0E0B1E0ECE1FBE102C0059092
:1000E0000D92A632B107D9F722E0A6E2B1E001C035
:1000F0001D92AA38B207E1F710E0C3E6D0E004C0D1
:100100002197FE010E947F0DC236D107C9F70E94D8
:1001100038060C948C0D0C940000AF92BF92CF92D5
:10012000DF92EF92FF920F931F93CF93DF936C01B7
:100130007B018B01040F151FEB015E01AE18BF0898
:10014000C017D10759F06991D601ED91FC9101904A
:10015000F081E02DC6010995892B79F7C501DF9162
:10016000CF911F910F91FF90EF90DF90CF90BF90B4
:10017000AF90089542E050E063E271E080EB91E0DF
:100180000C948D00FC01538D448D252F30E0842F7D
:1001900090E0821B930B541710F0CF9608950197AF
:1001A0000895FC01918D828D981761F0A28DAE0F9C
:1001B000BF2FB11D5D968C91928D9F5F9F73928F23
:1001C00090E008958FEF9FEF0895FC01918D828D4F
:1001D000981731F0828DE80FF11D858D90E008951C
:1001E0008FEF9FEF0895FC01918D228D892F90E074
:1001F000805C9F4F821B91098F739927089580EB34
:1002000091E00E94F30021E0892B09F420E0822F85
:10021000089580E090E0892B29F00E94FF00811171
:100220000C9400000895FC01A48DA80FB92FB11DF6
:10023000A35ABF4F2C91848D90E001968F7399271C
:10024000848FA689B7892C93A089B1898C918370FA
:1002500080648C93938D848D981306C00288F389F3
:10026000E02D80818F7D80830895EF92FF920F9320
:100270001F93CF93DF93EC0181E0888F9B8D8C8D52
:1002800098131AC0E889F989808185FF15C09FB746
:10029000F894EE89FF896083E889F9898081837009
:1002A000806480839FBF81E090E0DF91CF911F91B8
:1002B0000F91FF90EF900895F62E0B8D10E00F5FD9
:1002C0001F4F0F731127E02E8C8D8E110CC00FB6AF
:1002D00007FCFACFE889F989808185FFF5CFCE0147
:1002E0000E941301F1CFEB8DEC0FFD2FF11DE35AAE
:1002F000FF4FF0829FB7F8940B8FEA89FB898081CA
:100300008062CFCFCF93DF93EC01888D8823B9F043
:10031000AA89BB89E889F9898C9185FD03C0808110
:1003200086FD0DC00FB607FCF7CF8C9185FFF2CF8D
:10033000808185FFEDCFCE010E941301E9CFDF91CF
:10034000CF910895833081F028F4813099F0823084
:10035000A9F008958730A9F08830C9F08430B1F44D
:10036000809180008F7D03C0809180008F77809383
:100370008000089584B58F7784BD089584B58F7DFE
:10038000FBCF8091B0008F778093B000089580916B
:10039000B0008F7DF9CF1F93CF93DF93282F30E0EC
:1003A000F901E358FF4F8491F901E155FF4FD491D2
:1003B000F901E556FF4FC491CC23A9F0162F811106
:1003C0000E94A201EC2FF0E0EE0FFF1FEE58FF4F4E
:1003D000A591B4918FB7F894EC91111108C0D09504
:1003E000DE23DC938FBFDF91CF911F910895DE2B29
:1003F000F8CF9091000189130BC0ECE7F0E0E49195
:100400009FEF90930001E13049F028F0E23061F075
:1004100060E00C94CB0110926E00FACF90916F00C7
:100420009D7F90936F00F4CF909170009D7F90938B
:10043000700091E09093B0009091B100987F94602B
:100440009093B1001092B300E3CFCF93DF9390E08D
:10045000FC01E155FF4F249185569F4FFC0184918B
:100460008823D1F090E0880F991FFC01E859FF4FD5
:10047000A591B491FC01EE58FF4FC591D491611143
:100480000EC09FB7F8948C91E22FE0958E238C9349
:100490002881E223E8839FBFDF91CF9108958FB732
:1004A000F894EC91E22BEC938FBFF6CF3FB7F89422
:1004B0008091400190914101A0914201B09143018E
:1004C00026B5A89B05C02F3F19F00196A11DB11DAF
:1004D0003FBFBA2FA92F982F8827BC01CD01620FEB
:1004E000711D811D911D42E0660F771F881F991FA6
:1004F0004A95D1F708958F929F92AF92BF92CF9273
:10050000DF92EF92FF924B015C010E9456026B0159
:100510007C010E9456026C197D098E099F09683E74
:10052000734081059105A8F321E0821A9108A10882
:10053000B10888EEC80E83E0D81EE11CF11C8114BE
:100540009104A104B10429F7FF90EF90DF90CF90C0
:10055000BF90AF909F908F9008958F929F92AF928F
:10056000BF92FF920F931F93CF93DF93FC01F08014
:100570008BE08F1508F44FC0828108E512E0081B5C
:10058000110987FD1395000F111F000F111F8181A5
:10059000C8E8D0E0C81BD10987FDD395CC0FDD1F7B
:1005A000CC0FDD1F4E010D2E000CAA08BB08DB018D
:1005B000653B710514F0A4EBB0E09801012E000C2E
:1005C000440B550B281939094A095B090E94C80CCC
:1005D00024EB30E040E050E00E949E0C820E931E1F
:1005E000A41EB51E8C169D062CF0E80180169106FF
:1005F0000CF4E4012297CC0FDD1F2FB7F8948F2D58
:1006000090E0FC01EE0FFF1FE80FF91FE35BFD4FC9
:10061000D283C1832FBFDF91CF911F910F91FF90A4
:10062000BF90AF909F908F9008951F93CF93DF93CB
:10063000EC01162F88818C3008F04EC061E0812FCC
:100640000E9425028881282F30E0F901EE0FFF1F5C
:10065000E20FF31FE35BFD4F1F736081607C612B32
:10066000608319821A822CE0622F0E94730D829F90
:10067000B001112430E020E0AB01420F531FFA011A
:10068000EE0FFF1FE40FF51FE35BFD4F908196FD1A
:1006900016C02F5F3F4F2C30310571F781110FC00D
:1006A0001092800082E08093810010928500109269
:1006B0008400B19A80916F00826080936F00E8811E
:1006C0008E2F90E0FC01EE0FFF1FE80FF91FE35B98
:1006D000FD4F8081806480838881DF91CF911F915D
:1006E0000895FC01EE0FFF1FEC56FE4F2081318173
:1006F000232B39F421E030E03183208361E00C9436
:10070000250208959C01EAE2F1E090E080E0419149
:1007100051914217530781F0452B41F4FC01EE0F34
:10072000FF1FE65DFE4F31832083089501968830D8
:10073000910569F790E080E00895682F80EB91E0E3
:100740000C9435018FEF0E949D0385E50E949D0367
:100750000C94BA000F931F93CF93DF938B01D82F84
:10076000C92F82E00E949D03C801AD2FBC2F80934A
:10077000260190932701A0932801B09329010E949C
:100780009D03812F0E949D038D2F0E949D038C2F1E
:10079000DF91CF911F910F910C949D038FEF0E94D9
:1007A0009D0385E50C949D031F920F920FB60F9247
:1007B00011242F933F934F935F936F937F938F9366
:1007C0009F93AF93BF93EF93FF9380914B019091D1
:1007D0004C01A0914D01B0914E01892B8A2B8B2B9E
:1007E000D1F190914601E0914701F091480180815B
:1007F0008927808380914B0190914C01A0914D01FC
:10080000B0914E01181619061A061B069CF4809129
:100810004B0190914C01A0914D01B0914E01019777
:10082000A109B10980934B0190934C01A0934D0114
:10083000B0934E01FF91EF91BF91AF919F918F9136
:100840007F916F915F914F913F912F910F900FBECC
:100850000F901F901895809100010E94F901EACF36
:100860001F920F920FB60F9211242F933F934F9325
:100870005F936F937F938F939F93AF93BF93EF9308
:10088000FF9380EB91E00E941301FF91EF91BF91E4
:10089000AF919F918F917F916F915F914F913F9118
:1008A0002F910F900FBE0F901F9018951F920F92CF
:1008B0000FB60F9211242F938F939F93EF93FF9373
:1008C000E091C001F091C1018081E091C601F091F9
:1008D000C70182FD1BC090818091C9018F5F8F731A
:1008E0002091CA01821741F0E091C901F0E0E05582
:1008F000FE4F958F8093C901FF91EF919F918F914A
:100900002F910F900FBE0F901F9018958081F4CFFC
:100910001F920F920FB60F9211242F933F938F9334
:100920009F93AF93BF9380913C0190913D01A09123
:100930003E01B0913F0130913B0123E0230F2D3761
:1009400058F50196A11DB11D20933B0180933C01F8
:1009500090933D01A0933E01B0933F0180914001EF
:1009600090914101A0914201B09143010196A11DD6
:10097000B11D8093400190934101A0934201B09337
:100980004301BF91AF919F918F913F912F910F9014
:100990000FBE0F901F90189526E8230F0296A11DF9
:1009A000B11DD2CF1F920F920FB60F9211242F9329
:1009B0003F934F935F936F937F938F939F93AF93E7
:1009C000BF93CF93DF93EF93FF9380913A01C09150
:1009D0007102D0E087FF24C010928500109284003D
:1009E00080913A018F5F80933A0180913A01082EFD
:1009F000000C990B8C179D0724F480913A018C30E0
:100A0000C4F18091840090918500049680349C49C3
:100A100008F47AC08091840090918500049676C095
:100A200080913A01082E000C990B8C179D07C4F693
:100A3000E0913A018E2FEE0F990BFC01EE0FFF1F94
:100A4000E80FF91FE35BFD4F808186FFC9CFE0917E
:100A50003A018E2FEE0F990BFC01EE0FFF1FE80FEE
:100A6000F91FE35BFD4F808160E08F730E94CB0133
:100A7000B7CF2091840030918500E0913A018E2F0C
:100A8000EE0F990BFC01EE0FFF1FE80FF91FE35B60
:100A9000FD4F81819281820F931F909389008093F3
:100AA0008800E0913A018E2FEE0F990BFC01EE0FBA
:100AB000FF1FE80FF91FE35BFD4F808186FF11C028
:100AC000E0913A018E2FEE0F990BFC01EE0FFF1F04
:100AD000E80FF91FE35BFD4F808161E08F730E9497
:100AE000CB01FF91EF91DF91CF91BF91AF919F919A
:100AF0008F917F916F915F914F913F912F910F90C7
:100B00000FBE0F901F90189580E49CE99093890088
:100B1000809388008FEF80933A01E3CFCF92DF92EA
:100B2000EF92FF920F931F93E82FF92F05C001500A
:100B300011092109310961F1908196239417B9F3C4
:100B400005C0015011092109310911F19081962345
:100B50009413F7CFC12CD12CE12CF12C0AC08FEFCC
:100B6000C81AD80AE80AF80A0C151D052E053F0513
:100B700079F080818623841791F36C2D7D2D8E2D45
:100B80009F2D1F910F91FF90EF90DF90CF900895D0
:100B900060E070E080E090E01F910F91FF90EF9097
:100BA000DF90CF9008951092B3011092B20188EEB9
:100BB00093E0A0E0B0E08093B4019093B501A093DE
:100BC000B601B093B70185E191E09093B1018093B4
:100BD000B00185EC90E09093BD018093BC0184EC62
:100BE00090E09093BF018093BE0180EC90E09093E1
:100BF000C1018093C00181EC90E09093C301809388
:100C0000C20182EC90E09093C5018093C40186EC10
:100C100090E09093C7018093C6011092C901109291
:100C2000CA011092CB011092CC01E2E7F2E02AE86F
:100C300032E04FEF68EB7BE0809171028C30B0F4D2
:100C400091E0980F90937102808390E0DC01AA0FED
:100C5000BB1FA80FB91FA35BBD4F12967C936E9369
:100C6000119733962E173F0739F708954083F9CF30
:100C7000CF93DF9300D000D000D01F92CDB7DEB766
:100C8000789484B5826084BD84B5816084BD85B567
:100C9000826085BD85B5816085BD80916E00816073
:100CA00080936E0010928100809181008260809319
:100CB000810080918100816080938100809180001B
:100CC0008160809380008091B10084608093B10046
:100CD0008091B00081608093B00080917A00846040
:100CE00080937A0080917A00826080937A0080916C
:100CF0007A00816080937A0080917A008068809386
:100D00007A001092C100E091C001F091C10182E02F
:100D10008083E091BC01F091BD011082E091BE01A1
:100D2000F091BF0180E180831092C801E091C4017D
:100D3000F091C50186E08083E091C201F091C3018A
:100D4000808180618083E091C201F091C301808144
:100D500088608083E091C201F091C3018081806846
:100D60008083E091C201F091C30180818F7D8083F7
:100D700010E061E0812F0E94250260E0812F0E9437
:100D8000CB011F5F1E30A9F768EC70E080E090E0B7
:100D90000E947B0201E022242394312C80EB91E01D
:100DA0000E94F3007C01892B09F436C380EB91E0AB
:100DB0000E94F300181619068CF780EB91E00E9450
:100DC000D10090918E01853509F064C0911162C007
:100DD00080918D018F3F21F400938C0100938E014F
:100DE00080918C018F5F843308F06CC080938C01FC
:100DF00080918E01882391F280918B018111CECF59
:100E000080918C01843050F210928E01E0915C014F
:100E100010915D01E12EF12C20915B01223009F44B
:100E200086C0233009F4E3C0213089F5E83009F0A9
:100E30006BC0D0905E018D2D90E030919301311107
:100E400046C020939301F0920401E0920301909335
:100E5000020180930101F701EE0FFF1FEC56FE4FD8
:100E600031822082880F991FFC01EC56FE4F31829F
:100E7000208261E0812F0E94250260E08D2D0E947A
:100E8000250262E370E080E090E00E947B02109215
:100E90008C0184CF80938D01992309F4A1CFE09137
:100EA0008C01E23039F480938B01F0E0E95AFE4F77
:100EB000808396CFE330C8F390918B01915090934B
:100EC0008B01F3CF10928C0110928E0191CF409143
:100ED0000301509104012091010130910201E416B7
:100EE000F50619F48217930791F2440F551FFA0182
:100EF000EC56FE4F11821082220F331FF901EC567F
:100F0000FE4F118210829FCFC701880F991F109248
:100F1000930110928F011092900110929101109202
:100F200092018C569E4FFC0111821082B0CF8091AD
:100F3000030190910401E816F90639F0809101014E
:100F400090910201E816F90651F410929301109263
:100F50008F01109290011092910110929201E15034
:100F6000E73008F044C00E2E000CFF0BE654F84F9B
:100F70000C947F0DC107CA079F099F099F099F090C
:100F8000C409C7010E94710360915E01812F0E9414
:100F9000CB012DC08EE090E00E94710380915E0134
:100FA0008093440180915F018093450180914401C9
:100FB000909145019D838C838091600180934401D1
:100FC0008091610180934501E0914401F0914501D8
:100FD000FF83EE831E161F060CF0ADC18091000149
:100FE0008E3041F4ECE7F0E0149117FF34C00E941A
:100FF000A2034DCF8F3FD9F78EE080930001ECE73D
:10100000F0E014911F3F99F3113009F498C050F0AB
:10101000123009F4B3C017FDEACF61E08EE00E9400
:1010200025021FC014BC15BC84B5826084BD85B583
:10103000816085BDE9EAF0E08491E82FF0E0EE0FF1
:10104000FF1FEE58FF4F85919491EDEBF0E08491F6
:1010500080934A0110E061E08EE00E942502112396
:10106000B9F08C819D812C01712C612C60E072E1C2
:101070008AE790E0A30192010E949E0C69017A0127
:1010800091E0C91AD108E108F108123009F010C145
:10109000EC81FD812F01712C612C60E072E18AE707
:1010A00090E0A3019F010E949E0C49015A017A0120
:1010B0006901F1E0CF1AD108E108F1088FEFC816F5
:1010C000D104E104F10409F00CF4C5C060E472E459
:1010D0008FE090E0A30192010E949E0C69017A01C9
:1010E00091E0C91AD108E108F108123009F069C08D
:1010F00082E0EFEFCE16D104E104F104C9F0C4F0B0
:1011000060E970ED83E090E0A30192010E949E0CE3
:1011100069017A01F1E0CF1AD108E108F1088FEFF7
:10112000C816D104E104F10411F00CF08BC283E085
:101130009091B100987F892B8093B10093C0109259
:1011400080001092810080918100886080938100EE
:1011500080918100816080938100E9EAF0E08491D0
:10116000E82FF0E0EE0FFF1FEE58FF4F85919491AE
:10117000EDEBF0E08491809349016DCF1092B000C7
:101180001092B1008091B00082608093B000809195
:10119000B10081608093B100E9EAF0E08491E82F2A
:1011A000F0E0EE0FFF1FEE58FF4F85919491909362
:1011B000480180934701EDEBF0E084918093460174
:1011C0004ACF9FEFC916D104E104F10409F00CF4F1
:1011D0006DC068E478EE81E090E0A30192010E9486
:1011E0009E0C69017A01E1E0CE1AD108E108F1080C
:1011F00084E011114FC28FEFC816D104E104F1044D
:1012000009F014F483E02AC062E17AE780E090E01C
:10121000A30192010E949E0C69017A0181E0C81A23
:10122000D108E108F10884E09FEFC916D104E10478
:10123000F104A1F098F0750164012AE0F594E794B7
:10124000D794C7942A95D1F781E0C81AD108E1084C
:10125000F10885E003C081E011116ACF95B5987F50
:10126000892B85BD2C813D81220F331FAE81BF812B
:101270000E94850D28EE33E040E050E00E94D00C43
:101280001130B9F1123009F446C01111B0CEC7BC0B
:1012900020935301309354014093550150935601CC
:1012A00080916E00826080936E00A1CE82E0D4CFE8
:1012B00091E0C114D104E1E0EE06F10484F068E4A9
:1012C00078EE81E090E0A30192010E949E0C6901FA
:1012D0007A01F1E0CF1AD108E108F10893E011306A
:1012E00009F0C0CF80918100887F892B8093810095
:1012F000B9CFD0928900C092880020934F013093DB
:101300005001409351015093520180916F008260CF
:1013100080936F006CCEC092B30020934B0130934A
:101320004C0140934D0150934E01809170008260BA
:10133000809370005CCE8EE00E94F90158CEC70108
:101340000E94710310915E01153B08F050CEC70159
:101350000E9482039C01220F331F820F931FFC0106
:10136000EE58FD4F80819181A28189839A83AB835E
:10137000B701CE0101960E941503612F70E0CE01E6
:1013800001960E94AD0233CE80E190E00E9471038D
:1013900081E190E00E94710382E190E00E9471037C
:1013A00020915E01822F90E061E0213081F160E0C8
:1013B0008230910541F060E083309105A9F08430DE
:1013C000910551F461E080E10E94CB0161E081E18F
:1013D0000E94CB0160E010C060E08530910591F083
:1013E0008630910559F461E080E10E94CB0160E014
:1013F00081E10E94CB0161E082E1C9CD60E0079705
:1014000031F461E080E10E94CB0161E0F1CF80E145
:101410000E94CB0160E0DBCF6FE070E080E090E005
:101420000E947B0204E911E0F801C190D1908F0184
:10143000C114D10409F03AC09E2C60E08E2D0E94A8
:1014400025020E94CE03F701E358FF4F8491F70174
:10145000E155FF4FA490F701E556FF4FB490BB2034
:1014600099F081110E94A201EB2DF0E0EE0FFF1F19
:10147000EF56FF4FA591B491EC91AE2291E080E040
:1014800009F490E0C92ED82EB601DD0C880B990B1B
:101490000E94810B0E94AA03892D0E949D0389E06E
:1014A0000E949D030E94BA000E94A203FFEFEF1A60
:1014B000FF0A8EE0E816F10409F0B6CF05E011E06E
:1014C000F12CF801819191918F01892B39F50E94BE
:1014D000CE038F2D806480937C0080917A0080649D
:1014E00080937A0080917A0086FDFCCF809178000D
:1014F00060917900762F682F072E000C880B990BCE
:101500000E94810B0E94AA038F2D0E949D038AE0F6
:101510000E949D030E94BA000E94A203F394F6E089
:10152000FF12CFCF80919301882309F46FC01091EF
:10153000030160E0812F0E94CB0183E090E00197DE
:10154000F1F761E0812F0E94CB0183E290E00197E7
:10155000F1F760E0812F0E94CB0180910101909111
:1015600002019927FC01E155FF4F6491FC01E5560A
:10157000FF4FE491F0E0EE0FFF1FEF56FF4F859114
:10158000949100E315E720E030E0462F0E948E059D
:10159000611571058105910529F06F5F7F4F8F4FB0
:1015A0009F4F9F700E947F0B20E030E048EE51E497
:1015B0000E94010D20E030E040E05FE30E94E00B7C
:1015C0006B017C0120E030E0A9010E947A0B8111BF
:1015D00030C0C0908F01D0909001E0909101F090C8
:1015E00092010E94CE03C701B6010E94AA03809116
:1015F00003010E949D03809101010E949D0388E0E8
:101600000E949D030E94BA000E94A2036AE070E05B
:1016100080E090E00E947B0280E090E0892B09F45A
:10162000B9CB0E94FF00882309F4B4CB0E940000CC
:10163000B1CBC0928F01D0929001E0929101F092D3
:101640009201CFCF68E478EE81E090E0A3019201AF
:101650000E949E0C69017A01E1E0CE1AD108E108EE
:10166000F10884E0FFEFCF16D104E104F10409F0A2
:101670000CF45ECD64E274EF80E090E0A30192018F
:101680000E949E0C69017A01F1E0CF1AD108E108AD
:10169000F10885E0FFEFCF16D104E104F10409F071
:1016A00008F446CD62E17AE780E090E0A301920180
:1016B0000E949E0C69017A0191E0C91AD108E108E3
:1016C000F10886E0EFEFCE16D104E104F10409F051
:1016D00008F42ECD750164019AE0F594E794D7944F
:1016E000C7949A95D1F791E0C91AD108E108F10899
:1016F00087E01ECD0E94BC0B08F481E00895E894B9
:1017000009C097FB3EF490958095709561957F4F49
:101710008F4F9F4F9923A9F0F92F96E9BB279395F7
:10172000F695879577956795B795F111F8CFFAF407
:10173000BB0F11F460FF1BC06F5F7F4F8F4F9F4F38
:1017400016C0882311F096E911C0772321F09EE896
:10175000872F762F05C0662371F096E8862F70E0FC
:1017600060E02AF09A95660F771F881FDAF7880FD6
:101770009695879597F90895990F0008550FAA0B2C
:10178000E0E8FEEF16161706E807F907C0F0121694
:101790001306E407F50798F0621B730B840B950B97
:1017A00039F40A2661F0232B242B252B21F40895EC
:1017B0000A2609F4A140A6958FEF811D811D089589
:1017C0000E94F30B0C94640C0E94560C38F00E949B
:1017D0005D0C20F0952311F00C944D0C0C94530CDF
:1017E00011240C94980C0E94750C70F3959FC1F312
:1017F000950F50E0551F629FF001729FBB27F00DBF
:10180000B11D639FAA27F00DB11DAA1F649F662713
:10181000B00DA11D661F829F2227B00DA11D621F62
:10182000739FB00DA11D621F839FA00D611D221F1C
:10183000749F3327A00D611D231F849F600D211D00
:10184000822F762F6A2F11249F5750409AF0F1F083
:1018500088234AF0EE0FFF1FBB1F661F771F881FEC
:1018600091505040A9F79E3F510580F00C944D0CCB
:101870000C94980C5F3FE4F3983ED4F386957795EB
:101880006795B795F795E7959F5FC1F7FE2B880F92
:10189000911D9695879597F9089597F99F6780E828
:1018A00070E060E008959FEF80EC089500240A94B2
:1018B0001616170618060906089500240A9412162B
:1018C0001306140605060895092E0394000C11F45E
:1018D000882352F0BB0F40F4BF2B11F460FF04C00B
:1018E0006F5F7F4F8F4F9F4F089557FD9058440F64
:1018F000551F59F05F3F71F04795880F97FB991F6F
:1019000061F09F3F79F0879508951216130614062B
:10191000551FF2CF4695F1DF08C0161617061806B8
:10192000991FF1CF86957105610508940895E89493
:10193000BB2766277727CB0197F90895052E97FBDC
:101940001EF400940E94B50C57FD07D00E94D00CE5
:1019500007FC03D04EF40C94B50C5095409530958F
:1019600021953F4F4F4F5F4F08959095809570950B
:1019700061957F4F8F4F9F4F08950E94F20CA59F56
:10198000900DB49F900DA49F800D911D112408957A
:10199000B7FF0C94BD0C0E94BD0C821B930B0895E5
:1019A000A1E21A2EAA1BBB1BFD010DC0AA1FBB1F63
:1019B000EE1FFF1FA217B307E407F50720F0A21BD5
:1019C000B30BE40BF50B661F771F881F991F1A9442
:1019D00069F760957095809590959B01AC01BD016C
:1019E000CF010895A29FB001B39FC001A39F700DC6
:1019F000811D1124911DB29F700D811D1124911D17
:101A000008950E94150D0C94640C0E945D0C58F012
:101A10000E94560C40F029F45F3F29F00C944D0CC5
:101A200051110C94980C0C94530C0E94750C68F393
:101A30009923B1F3552391F3951B550BBB27AA2787
:101A400062177307840738F09F5F5F4F220F331FC1
:101A5000441FAA1FA9F335D00E2E3AF0E0E832D089
:101A600091505040E695001CCAF72BD0FE2F29D08C
:101A7000660F771F881FBB1F261737074807AB075E
:101A8000B0E809F0BB0B802DBF01FF2793585F4FD3
:101A90003AF09E3F510578F00C944D0C0C94980C44
:101AA0005F3FE4F3983ED4F3869577956795B795B5
:101AB000F7959F5FC9F7880F911D9695879597F9C0
:101AC0000895E1E0660F771F881FBB1F6217730739
:101AD0008407BA0720F0621B730B840BBA0BEE1F4E
:101AE00088F7E0950895991B79E004C0991F96172F
:101AF00008F0961B881F7A95C9F780950895EE0F18
:101B0000FF1F0590F491E02D09940E94F20CB7FF9D
:0C1B10000895821B930B0895F894FFCFFA
:101B1C00FF0C000D000000000000000000000000A1
:101B2C00000000000035018D00C2008201F300D1DD
:061B3C0000E5000D0A00A7
:00000001FF
