:100000000C945E000C9486000C9486000C94860080
:100010000C9486000C9486000C9486000C94BF020D
:100020000C9486000C9486000C9486000C94BD03FE
:100030000C9486000C94FD030C9486000C948600AE
:100040000C9473030C9486000C9441030C941B03D2
:100050000C9486000C9486000C9486000C94860008
:100060000C9486000C948600000000080002010039
:100070000003040700000000000000000000000072
:10008000240027002A0001020408102040800102F9
:1000900004081020010204081020000000002500C0
:1000A00028002B00040404040404040402020202D5
:1000B00002020303030303030200510911241FBEBC
:1000C000CFEFD8E0DEBFCDBF22E0ACE8B1E001C0A9
:1000D0001D92A83AB207E1F711E0A0E0B1E0E8E430
:1000E000F7E102C005900D92AC38B107D9F710E0E6
:1000F000CEE5D0E004C02197FE010E94950BCD35DE
:10010000D107C9F70E9459040C94A20B0C9400006B
:10011000AF92BF92CF92DF92EF92FF920F931F9315
:10012000CF93DF936C017B018B01040F151FEB0153
:100130005E01AE18BF08C017D10759F06991D6010A
:10014000ED91FC910190F081E02DC6010995892B7C
:1001500079F7C501DF91CF911F910F91FF90EF903B
:10016000DF90CF90BF90AF900895FC01538D448DE8
:10017000252F30E0842F90E0821B930B541710F052
:10018000CF96089501970895FC01918D828D98175F
:1001900061F0A28DAE0FBF2FB11D5D968C91928D37
:1001A0009F5F9F73928F90E008958FEF9FEF089568
:1001B000FC01918D828D981731F0828DE80FF11D31
:1001C000858D90E008958FEF9FEF0895FC01918D4C
:1001D000228D892F90E0805C9F4F821B91098F7345
:1001E000992708958BE092E00E94E60021E0892B98
:1001F00009F420E0822F089580E090E0892B29F017
:100200000E94F20081110C9400000895FC01A48D5D
:10021000A80FB92FB11DA35ABF4F2C91848D90E028
:1002200001968F739927848FA689B7892C93A0890B
:10023000B1898C91837080648C93938D848D981395
:1002400006C00288F389E02D80818F7D8083089528
:10025000EF92FF920F931F93CF93DF93EC0181E016
:10026000888F9B8D8C8D98131AC0E889F9898081BD
:1002700085FF15C09FB7F894EE89FF896083E889F0
:10028000F98980818370806480839FBF81E090E0E2
:10029000DF91CF911F910F91FF90EF900895F62E6F
:1002A0000B8D10E00F5F1F4F0F731127E02E8C8D09
:1002B0008E110CC00FB607FCFACFE889F98980814E
:1002C00085FFF5CFCE010E940601F1CFEB8DEC0F3B
:1002D000FD2FF11DE35AFF4FF0829FB7F8940B8F6B
:1002E000EA89FB8980818062CFCFCF93DF93EC01D5
:1002F000888D8823B9F0AA89BB89E889F9898C910E
:1003000085FD03C0808186FD0DC00FB607FCF7CFC9
:100310008C9185FFF2CF808185FFEDCFCE010E94C9
:100320000601E9CFDF91CF91089590E0FC01E859F3
:10033000FF4F2491FC01EA57FF4F3491FC01EC552B
:10034000FF4FE491EE23C9F0222339F0233001F16D
:10035000A8F4213019F1223029F1F0E0EE0FFF1F4F
:10036000E656FF4FA591B4918FB7F894EC916111C7
:1003700026C030953E233C938FBF08952730A9F0C7
:100380002830C9F0243049F7809180008F7D03C068
:10039000809180008F7780938000DFCF84B58F7746
:1003A00084BDDBCF84B58F7DFBCF8091B0008F778C
:1003B0008093B000D2CF8091B0008F7DF9CF3E2BDB
:1003C000DACF9091000189130BC0E8EBF0E0E491E3
:1003D0009FEF90930001E13049F028F0E23061F0A6
:1003E00060E00C94950110926E00FACF90916F002E
:1003F0009D7F90936F00F4CF909170009D7F9093BC
:10040000700091E09093B0009091B100987F94605B
:100410009093B1001092B300E3CFCF93DF9390E0BD
:10042000FC01EA57FF4F24918C559F4FFC018491AA
:100430008823D1F090E0880F991FFC01E458FF4F0A
:10044000A591B491FC01E656FF4FC591D49161117D
:100450000EC09FB7F8948C91E22FE0958E238C9379
:100460002881E223E8839FBFDF91CF9108958FB762
:10047000F894EC91E22BEC938FBFF6CF3FB7F89452
:1004800080918E0190918F01A0919001B091910186
:1004900026B5A89B05C02F3F19F00196A11DB11DDF
:1004A0003FBFBA2FA92F982F8827BC01CD01620F1B
:1004B000711D811D911D42E0660F771F881F991FD6
:1004C0004A95D1F708958F929F92AF92BF92CF92A3
:1004D000DF92EF92FF924B015C010E943E026B01A2
:1004E0007C010E943E026C197D098E099F09683EBD
:1004F000734081059105A8F321E0821A9108A108B3
:10050000B10888EEC80E83E0D81EE11CF11C8114EE
:100510009104A104B10429F7FF90EF90DF90CF90F0
:10052000BF90AF909F908F9008956FEF8BE092E017
:100530000E94280165E58BE092E00E94280142E0DC
:1005400050E069E871E08BE092E00C948800FC01D7
:10055000EE0FFF1FE655FE4F20813181232B39F42A
:1005600021E030E03183208361E00C940D02089596
:100570008EBD00000DB407FEFDCF8EB508951F920D
:100580000F920FB60F9211242F933F934F935F93C7
:100590006F937F938F939F93AF93BF93EF93FF934B
:1005A00080919A0190919B01A0919C01B0919D0135
:1005B000892B8A2B8B2BD1F190919501E09196019B
:1005C000F091970180818927808380919A01909191
:1005D0009B01A0919C01B0919D01181619061A0665
:1005E0001B069CF480919A0190919B01A0919C0123
:1005F000B0919D010197A109B10980939A0190934F
:100600009B01A0939C01B0939D01FF91EF91BF913D
:10061000AF919F918F917F916F915F914F913F919A
:100620002F910F900FBE0F901F9018958091000191
:100630000E94E101EACF1F920F920FB60F92112490
:100640002F933F934F935F936F937F938F939F93DA
:10065000AF93BF93EF93FF938BE092E00E9406016C
:10066000FF91EF91BF91AF919F918F917F916F918A
:100670005F914F913F912F910F900FBE0F901F9060
:1006800018951F920F920FB60F9211242F938F93EC
:100690009F93EF93FF93E0911B02F0911C028081E6
:1006A000E0912102F091220282FD1BC09081809195
:1006B00024028F5F8F7320912502821741F0E09111
:1006C0002402F0E0E55FFD4F958F80932402FF91B7
:1006D000EF919F918F912F910F900FBE0F901F90D0
:1006E00018958081F4CF1F920F920FB60F921124AC
:1006F0002F933F938F939F93AF93BF938091A601C6
:100700009091A701A091A801B091A90130918D010C
:1007100023E0230F2D3758F50196A11DB11D20931D
:100720008D018093A6019093A701A093A801B09397
:10073000A90180918E0190918F01A0919001B091BB
:1007400091010196A11DB11D80938E0190938F019F
:10075000A0939001B0939101BF91AF919F918F9120
:100760003F912F910F900FBE0F901F90189526E884
:10077000230F0296A11DB11DD2CF1F920F920FB66B
:100780000F9211242F933F934F935F936F937F9317
:100790008F939F93AF93BF93EF93FF93E0918C015F
:1007A000F0E0EE0FFF1FEF5FFE4F8081918190938D
:1007B00089008093880060E08AE00E94950180E0D3
:1007C0000E94B80280E00E94B80280E00E94B80255
:1007D00061E08AE00E949501FF91EF91BF91AF9196
:1007E0009F918F917F916F915F914F913F912F9149
:1007F0000F900FBE0F901F9018951F920F920FB67B
:100800000F9211242F933F934F935F936F937F9396
:100810008F939F93AF93BF93EF93FF9385E791E0FF
:10082000909385008093840060E08AE00E949501A7
:10083000E0918C0184E0E89FF0011124E55DFE4F1A
:1008400082810E94B802E0918C0184E0E89FF0016F
:100850001124E55DFE4F81810E94B802E0918C0178
:1008600084E0E89FF0011124E55DFE4F80810E9445
:10087000B80261E08AE00E94950180918C018F5F4F
:1008800080938C0180918C01833111F410928C0142
:10089000FF91EF91BF91AF919F918F917F916F9158
:1008A0005F914F913F912F910F900FBE0F901F902E
:1008B0001895CF93DF9300D01F92CDB7DEB7789411
:1008C00084B5826084BD84B5816084BD85B5826055
:1008D00085BD85B5816085BD80916E008160809306
:1008E0006E0010928100809181008260809381006F
:1008F000809181008160809381008091800081607F
:10090000809380008091B10084608093B1008091D9
:10091000B00081608093B00080917A008460809301
:100920007A0080917A00826080937A0080917A00C8
:10093000816080937A0080917A00806880937A0049
:100940001092C1008FB78F778FBFE0911B02F0919B
:100950001C0282E08083E0911702F091180210825D
:10096000E0911902F0911A0280E180831092230233
:10097000E0911F02F091200286E08083E0911D0249
:10098000F0911E02808180618083E0911D02F091D0
:100990001E02808188608083E0911D02F0911E021A
:1009A000808180688083E0911D02F0911E02808129
:1009B0008F7D808361E08AE00E940D0261E089E022
:1009C0000E940D0261E08AE00E940D0261E08BE06E
:1009D0000E940D0261E08CE00E940D0261E08DE05A
:1009E0000E940D0261E08AE00E9495012FB72983E1
:1009F000F89480919201811127C0EEEAF0E0849191
:100A0000E0E9F0E09491E82FF0E0EE0FFF1FE458EA
:100A1000FF4FA591B491EC91E92321F461E08AE0C4
:100A20000E94950161E08AE00E940D028CB5806110
:100A30008CBD8CB580648CBD61E08DE00E940D02A0
:100A400061E08BE00E940D02809192018F5F8093A4
:100A5000920189818FBF8CB58C7F8CBD8DB58160F3
:100A60008DBD83E0809380008BE0809381001092A5
:100A7000820082E0809389008AE08093880085E785
:100A800091E0909385008093840080916F00826054
:100A900080936F0080916F00816080936F008FB7AB
:100AA00080688FBF64E670E080E090E00E9463029F
:100AB00022242394312C8BE092E00E94E600892BC3
:100AC00009F4D4C38BE092E00E94E60018161906E0
:100AD00094F78BE092E00E94C40090910A02853561
:100AE00009F066C0911164C0809109028F3F29F41A
:100AF00091E09093080290930A02809108028F5F20
:100B0000843308F06DC08093080280910A02882324
:100B100091F2809107028111CECF8091080284303A
:100B200050F210920A022091D801D090D901ED2CF8
:100B3000F12C3091D701323009F47FC0333009F401
:100B400092C0313091F5273009F06CC0E091DA01A4
:100B5000E9838E2F90E02091D201211146C030937D
:100B6000D201F0922A01E09229019093280180930A
:100B70002701F701EE0FFF1FE655FE4F318220825D
:100B8000880F991FFC01E655FE4F3182208261E0FB
:100B90008D2D0E940D0260E089810E940D0262E3AA
:100BA00070E080E090E00E9463021092080283CF20
:100BB00080930902992309F4A0CFE0910802E23062
:100BC00039F480930702F0E0ED52FE4F808395CF19
:100BD000E330C8F390910702915090930702F3CF4E
:100BE0001092080210920A0290CF40912901509170
:100BF0002A012091270130912801E416F50619F405
:100C00008217930791F2440F551FFA01E655FE4FE4
:100C100011821082220F331FF901E655FE4F118217
:100C200010829FCFC701880F991F1092D20186555D
:100C30009E4FFC0111821082B8CF809129019091C2
:100C40002A01E816F90639F08091270190912801D0
:100C5000E816F90611F41092D201243009F450C2BA
:100C60002CF4213099F00E9495029FCF2530D1F0CD
:100C70002830C9F78FB7F8944091A6015091A70189
:100C80006091A8017091A9018FBFEDCFC7010E94AB
:100C9000A7026091DA0170E0609570958D2D0E9439
:100CA0009501E1CFC7010E94A7028091DA018093EC
:100CB00093018091DB018093940100919301109145
:100CC00094018091DC01809393018091DD018093F8
:100CD000940180919301909194019A8389831816CD
:100CE00019060CF009C280910001D812BCC0E8EBD3
:100CF000F0E0F491FB83F7FDB6CF61E08D2D0E940B
:100D00000D028B81882321F09B81923009F09FC1D5
:100D10004801B12CA12C60E072E18AE790E0A501C6
:100D200098010E94760B29013A017A016901E1E0FC
:100D3000CE1AD108E108F108FFEFCF16D104E10483
:100D4000F10409F00CF454C160E472E48FE090E027
:100D5000A50198010E94760B69017A0181E0C81A09
:100D6000D108E108F1089B81923009F0F6C082E0D9
:100D7000EFEFCE16D104E104F10409F00CF46CC0DD
:100D800060E970ED83E090E0A50198010E94760B88
:100D900069017A01F1E0CF1AD108E108F10883E096
:100DA0002FEFC216D104E104F10409F00CF454C091
:100DB00068E478EE81E090E0A50198010E94760B4E
:100DC00069017A0191E0C91AD108E108F10884E0CB
:100DD000EFEFCE16D104E104F104F1F1ECF164E29D
:100DE00074EF80E090E0A50194010E94760B690108
:100DF0007A01F1E0CF1AD108E108F10885E09FEF10
:100E0000C916D104E104F10439F130F162E17AE765
:100E100080E090E0A50194010E94760B69017A01BF
:100E2000F1E0CF1AD108E108F10886E02FEFC216F1
:100E3000D104E104F10481F078F0730162019AE0D9
:100E4000F594E794D794C7949A95D1F721E0C21A04
:100E5000D108E108F10887E09091B100987F892BD3
:100E60008093B100CDC08F3F09F0FDCED09200013C
:100E7000E8EBF0E0F491FB83FF3F09F4F4CEF130AE
:100E800031F150F0F23009F442C0F7FDECCE61E0F0
:100E90008D2D0E940D0238CF14BC15BC84B5826024
:100EA00084BD85B5816085BDF701EC55FF4FE491A8
:100EB000F0E0EE0FFF1FE656FF4F85919491F7018A
:100EC000EA57FF4FE491E09399011B8216CF1092ED
:100ED0008000109281008091810088608093810061
:100EE00080918100816080938100F701EC55FF4F74
:100EF000E491F0E0EE0FFF1FE656FF4F85919491CD
:100F0000F701EA57FF4FE491E0939801F6CE109273
:100F1000B0001092B1008091B00082608093B00068
:100F20008091B10081608093B100F701EC55FF4FD3
:100F3000E491F0E0EE0FFF1FE656FF4F859194918C
:100F40009093970180939601F701EA57FF4FE49140
:100F5000E093950122E02B83D0CE8FEFC816D10409
:100F6000E104F10409F00CF470C068E478EE81E06B
:100F700090E0A50198010E94760B69017A0191E049
:100F8000C91AD108E108F108EB8184E0E11137CFFB
:100F90008FEFC816D104E104F10409F014F483E0E2
:100FA0002BC062E17AE780E090E0A50194010E9405
:100FB000760B69017A0181E0C81AD108E108F108CD
:100FC00084E09FEFC916D104E104F104A9F0A0F078
:100FD000730162012AE0F594E794D794C7942A95A7
:100FE000D1F7F1E0CF1AD108E108F10885E004C09B
:100FF00081E0EB81E11130CF95B5987F892B85BDDC
:101000009801220F331FA981BA810E949B0B28EE01
:1010100033E040E050E00E94540B8B81813009F4B2
:1010200049C0823009F458C081111DCEC7BC20933D
:10103000A2013093A3014093A4015093A501809194
:101040006E00826080936E000ECE82E0D2CFB12C13
:10105000A12C60E072E18AE790E0A50198010E946E
:10106000760B69017A01F1E0CF1AD108E108F108A5
:1010700091E0C114D10421E0E206F10484F068E4B7
:1010800078EE81E090E0A50198010E94760B69015D
:101090007A0181E0C81AD108E108F10893E0EB81F8
:1010A000E13009F0ADCF80918100887F892B80935A
:1010B0008100A6CFD0928900C092880020939E0123
:1010C00030939F014093A0015093A10180916F0044
:1010D000826080936F00C7CDC092B30020939A01C5
:1010E00030939B0140939C0150939D01809170002F
:1010F000826080937000B7CD8D2D0E94E101B3CD49
:1011000068EC70E080E090E00E946302C7010E94FA
:10111000A7026091DA01611101C06AE570E090E018
:1011200080E00E9480092EEA37E441E350E40E9407
:10113000DF0920E030E04AEF53E40E94AD0A4B01A2
:101140005C0120E030E0A9010E944F0B20E030E07C
:1011500040E05FE387FD25C0C501B4010E94AD0AF0
:101160000E94190BEFEFED0DE33108F07CCD0E2E50
:10117000000CFF0BE254F74F0C94950BD608DC08DB
:10118000E108E608EB08F008F508FA08FF0804098A
:1011900009090E09130918091D09220927092C0933
:1011A0003109C501B4010E94AC0ADACF7093020183
:1011B00060930101000057CD709304016093030117
:1011C000F9CF7093060160930501F4CF7093080185
:1011D00060930701EFCF70930A0160930901EACF92
:1011E00070930C0160930B01E5CF70930E01609337
:1011F0000D01E0CF7093100160930F01DBCF70936E
:10120000120160931101D6CF709314016093130102
:10121000D1CF7093160160931501CCCF7093180154
:1012200060931701C7CF70931A0160931901C2CF61
:1012300070931C0160931B01BDCF70931E016093DE
:101240001D01B8CF7093200160931F01B3CF70933D
:10125000220160932101AECF70932401609323019A
:10126000A9CF7093260160932501A4CF6FE070E0B1
:1012700080E090E00E9463020E9495026AE070E0C4
:1012800080E090E00E94630280E090E0892B09F406
:101290000FCC0E94F200882309F40ACC0E940000BF
:1012A00007CCEBE0F2E01382128288EE93E0A0E03C
:1012B000B0E084839583A683B7838BE791E0918325
:1012C000808385EC90E09587848784EC90E0978715
:1012D000868780EC90E0918B808B81EC90E0938B03
:1012E000828B82EC90E0958B848B86EC90E0978BE0
:1012F000868B118E128E138E148E0895E89409C079
:1013000097FB3EF490958095709561957F4F8F4F38
:101310009F4F9923A9F0F92F96E9BB279395F6954E
:10132000879577956795B795F111F8CFFAF4BB0FCC
:1013300011F460FF1BC06F5F7F4F8F4F9F4F16C030
:10134000882311F096E911C0772321F09EE8872FBA
:10135000762F05C0662371F096E8862F70E060E076
:101360002AF09A95660F771F881FDAF7880F9695EF
:10137000879597F90895990F0008550FAA0BE0E893
:10138000FEEF16161706E807F907C0F01216130647
:10139000E407F50798F0621B730B840B950B39F487
:1013A0000A2661F0232B242B252B21F408950A26ED
:1013B00009F4A140A6958FEF811D811D08950E941B
:1013C000F2090C94630A0E94550A38F00E945C0AE4
:1013D00020F0952311F00C944C0A0C94520A11241D
:1013E0000C94970A0E94740A70F3959FC1F3950FAD
:1013F00050E0551F629FF001729FBB27F00DB11D99
:10140000639FAA27F00DB11DAA1F649F6627B00D28
:10141000A11D661F829F2227B00DA11D621F739F11
:10142000B00DA11D621F839FA00D611D221F749F1F
:101430003327A00D611D231F849F600D211D822F66
:10144000762F6A2F11249F5750409AF0F1F088238D
:101450004AF0EE0FFF1FBB1F661F771F881F9150BA
:101460005040A9F79E3F510580F00C944C0A0C9413
:10147000970A5F3FE4F3983ED4F386957795679596
:10148000B795F795E7959F5FC1F7FE2B880F911DE4
:101490009695879597F9089597F99F6780E870E08A
:1014A00060E008959FEF80EC089500240A941616DA
:1014B000170618060906089500240A941216130642
:1014C000140605060895092E0394000C11F48823D0
:1014D00052F0BB0F40F4BF2B11F460FF04C06F5FEC
:1014E0007F4F8F4F9F4F089557FD9058440F551FC2
:1014F00059F05F3F71F04795880F97FB991F61F096
:101500009F3F79F087950895121613061406551F0C
:10151000F2CF4695F1DF08C0161617061806991F78
:10152000F1CF86957105610508940895E894BB276D
:1015300066277727CB0197F90895A29FB001B39F43
:10154000C001A39F700D811D1124911DB29F700DCC
:10155000811D1124911D08955058BB27AA270E9470
:10156000C40A0C94630A0E94550A38F00E945C0A6F
:1015700020F039F49F3F19F426F40C94520A0EF42B
:10158000E095E7FB0C944C0AE92F0E94740A58F38B
:10159000BA17620773078407950720F079F4A6F558
:1015A0000C94960A0EF4E0950B2EBA2FA02D0B0189
:1015B000B90190010C01CA01A0011124FF27591B98
:1015C00099F0593F50F4503E68F11A16F040A22F9E
:1015D000232F342F4427585FF3CF4695379527950F
:1015E000A795F0405395C9F77EF41F16BA0B620B0E
:1015F000730B840BBAF09150A1F0FF0FBB1F661F55
:10160000771F881FC2F70EC0BA0F621F731F841F97
:1016100048F4879577956795B795F7959E3F08F0BD
:10162000B0CF9395880F08F09927EE0F979587957F
:1016300008950E94200B6894B1110C94970A0895A4
:101640000E947C0A88F09F5798F0B92F9927B751CC
:10165000B0F0E1F0660F771F881F991F1AF0BA9556
:10166000C9F714C0B13091F00E94960AB1E0089514
:101670000C94960A672F782F8827B85F39F0B93F06
:10168000CCF3869577956795B395D9F73EF4909509
:101690008095709561957F4F8F4F9F4F08950E9461
:1016A000BB0908F48FEF0895A1E21A2EAA1BBB1BF9
:1016B000FD010DC0AA1FBB1FEE1FFF1FA217B3071E
:1016C000E407F50720F0A21BB30BE40BF50B661F34
:1016D000771F881F991F1A9469F7609570958095F8
:1016E00090959B01AC01BD01CF010895052E97FB9C
:1016F0001EF400940E948D0B57FD07D00E94540BDE
:1017000007FC03D04EF40C948D0B5095409530950A
:1017100021953F4F4F4F5F4F08959095809570955D
:1017200061957F4F8F4F9F4F0895EE0FFF1F0590DC
:10173000F491E02D09940E949D0AB7FF0895821B41
:08174000930B0895F894FFCF0C
:10174800FFEE02EE02EE02EE02EE02EE02EE02EE14
:1017580002EE02EE02EE02EE02EE02EE02EE02EE01
:1017680002EE02EE02EE020C000D00000200000183
:10177800000000020000000004000000000100005A
:10178800000200800000004000000020000000105F
:10179800000000080000000400000000080000002D
:1017A80001000000100000002000000040000000C0
:1017B800800000000004000000000028018800B537
:0C17C800007501E600C400D8000D0A0006
:00000001FF
